{
  "_format": "hh-sol-artifact-1",
  "contractName": "Message",
  "sourceName": "contracts/Message.sol",
  "abi": [
    {
      "anonymous": false,
      "inputs": [
        {
          "indexed": true,
          "internalType": "address",
          "name": "user",
          "type": "address"
        },
        {
          "indexed": false,
          "internalType": "string",
          "name": "message",
          "type": "string"
        }
      ],
      "name": "MessageUpdated",
      "type": "event"
    },
    {
      "inputs": [],
      "name": "getMessage",
      "outputs": [
        {
          "internalType": "string",
          "name": "",
          "type": "string"
        }
      ],
      "stateMutability": "view",
      "type": "function"
    },
    {
      "inputs": [
        {
          "internalType": "string",
          "name": "_message",
          "type": "string"
        }
      ],
      "name": "setMessage",
      "outputs": [],
      "stateMutability": "nonpayable",
      "type": "function"
    },
    {
      "inputs": [
        {
          "internalType": "address",
          "name": "",
          "type": "address"
        }
      ],
      "name": "userMessages",
      "outputs": [
        {
          "internalType": "string",
          "name": "",
          "type": "string"
        }
      ],
      "stateMutability": "view",
      "type": "function"
    }
  ],
  "bytecode": "0x6080604052348015600f57600080fd5b506108a88061001f6000396000f3fe608060405234801561001057600080fd5b50600436106100415760003560e01c8063368b8772146100465780636cd947ee14610062578063ce6d41de14610092575b600080fd5b610060600480360381019061005b9190610415565b6100b0565b005b61007c600480360381019061007791906104bc565b61014d565b6040516100899190610568565b60405180910390f35b61009a6101ed565b6040516100a79190610568565b60405180910390f35b806000803373ffffffffffffffffffffffffffffffffffffffff1673ffffffffffffffffffffffffffffffffffffffff16815260200190815260200160002090816100fb91906107a0565b503373ffffffffffffffffffffffffffffffffffffffff167f3f784155aa459466ce143eb76c376834c30b26979da03bd4be74cd146c4bb1c3826040516101429190610568565b60405180910390a250565b6000602052806000526040600020600091509050805461016c906105b9565b80601f0160208091040260200160405190810160405280929190818152602001828054610198906105b9565b80156101e55780601f106101ba576101008083540402835291602001916101e5565b820191906000526020600020905b8154815290600101906020018083116101c857829003601f168201915b505050505081565b60606000803373ffffffffffffffffffffffffffffffffffffffff1673ffffffffffffffffffffffffffffffffffffffff1681526020019081526020016000208054610238906105b9565b80601f0160208091040260200160405190810160405280929190818152602001828054610264906105b9565b80156102b15780601f10610286576101008083540402835291602001916102b1565b820191906000526020600020905b81548152906001019060200180831161029457829003601f168201915b5050505050905090565b6000604051905090565b600080fd5b600080fd5b600080fd5b600080fd5b6000601f19601f8301169050919050565b7f4e487b7100000000000000000000000000000000000000000000000000000000600052604160045260246000fd5b610322826102d9565b810181811067ffffffffffffffff82111715610341576103406102ea565b5b80604052505050565b60006103546102bb565b90506103608282610319565b919050565b600067ffffffffffffffff8211156103805761037f6102ea565b5b610389826102d9565b9050602081019050919050565b82818337600083830152505050565b60006103b86103b384610365565b61034a565b9050828152602081018484840111156103d4576103d36102d4565b5b6103df848285610396565b509392505050565b600082601f8301126103fc576103fb6102cf565b5b813561040c8482602086016103a5565b91505092915050565b60006020828403121561042b5761042a6102c5565b5b600082013567ffffffffffffffff811115610449576104486102ca565b5b610455848285016103e7565b91505092915050565b600073ffffffffffffffffffffffffffffffffffffffff82169050919050565b60006104898261045e565b9050919050565b6104998161047e565b81146104a457600080fd5b50565b6000813590506104b681610490565b92915050565b6000602082840312156104d2576104d16102c5565b5b60006104e0848285016104a7565b91505092915050565b600081519050919050565b600082825260208201905092915050565b60005b83811015610523578082015181840152602081019050610508565b60008484015250505050565b600061053a826104e9565b61054481856104f4565b9350610554818560208601610505565b61055d816102d9565b840191505092915050565b60006020820190508181036000830152610582818461052f565b905092915050565b7f4e487b7100000000000000000000000000000000000000000000000000000000600052602260045260246000fd5b600060028204905060018216806105d157607f821691505b6020821081036105e4576105e361058a565b5b50919050565b60008190508160005260206000209050919050565b60006020601f8301049050919050565b600082821b905092915050565b60006008830261064c7fffffffffffffffffffffffffffffffffffffffffffffffffffffffffffffffff8261060f565b610656868361060f565b95508019841693508086168417925050509392505050565b6000819050919050565b6000819050919050565b600061069d6106986106938461066e565b610678565b61066e565b9050919050565b6000819050919050565b6106b783610682565b6106cb6106c3826106a4565b84845461061c565b825550505050565b600090565b6106e06106d3565b6106eb8184846106ae565b505050565b5b8181101561070f576107046000826106d8565b6001810190506106f1565b5050565b601f82111561075457610725816105ea565b61072e846105ff565b8101602085101561073d578190505b610751610749856105ff565b8301826106f0565b50505b505050565b600082821c905092915050565b600061077760001984600802610759565b1980831691505092915050565b60006107908383610766565b9150826002028217905092915050565b6107a9826104e9565b67ffffffffffffffff8111156107c2576107c16102ea565b5b6107cc82546105b9565b6107d7828285610713565b600060209050601f83116001811461080a57600084156107f8578287015190505b6108028582610784565b86555061086a565b601f198416610818866105ea565b60005b828110156108405784890151825560018201915060208501945060208101905061081b565b8683101561085d5784890151610859601f891682610766565b8355505b6001600288020188555050505b50505050505056fea26469706673582212209da802d53678161dde8f7cfde5e569ee1c47458e097cab56d6e5ef105f0346ab64736f6c634300081c0033",
  "linkReferences": {},
  "deployedLinkReferences": {}
}